{
  "_format": "hh-sol-artifact-1",
  "contractName": "DebtProofEscrow",
  "sourceName": "contracts/DebtProofEscrow.sol",
  "abi": [
    {
      "inputs": [],
      "name": "InvalidAmount",
      "type": "error"
    },
    {
      "inputs": [
        {
          "internalType": "enum DebtProofEscrow.LoanState",
          "name": "current",
          "type": "uint8"
        },
        {
          "internalType": "enum DebtProofEscrow.LoanState",
          "name": "expected",
          "type": "uint8"
        }
      ],
      "name": "InvalidState",
      "type": "error"
    },
    {
      "inputs": [],
      "name": "LoanAlreadyExists",
      "type": "error"
    },
    {
      "inputs": [],
      "name": "LoanNotFound",
      "type": "error"
    },
    {
      "inputs": [],
      "name": "TransferFailed",
      "type": "error"
    },
    {
      "inputs": [],
      "name": "Unauthorized",
      "type": "error"
    },
    {
      "anonymous": false,
      "inputs": [
        {
          "indexed": true,
          "internalType": "string",
          "name": "loanId",
          "type": "string"
        },
        {
          "indexed": true,
          "internalType": "address",
          "name": "borrower",
          "type": "address"
        }
      ],
      "name": "EscrowCancelled",
      "type": "event"
    },
    {
      "anonymous": false,
      "inputs": [
        {
          "indexed": true,
          "internalType": "string",
          "name": "loanId",
          "type": "string"
        },
        {
          "indexed": true,
          "internalType": "address",
          "name": "borrower",
          "type": "address"
        },
        {
          "indexed": false,
          "internalType": "uint256",
          "name": "principal",
          "type": "uint256"
        }
      ],
      "name": "EscrowCreated",
      "type": "event"
    },
    {
      "anonymous": false,
      "inputs": [
        {
          "indexed": true,
          "internalType": "string",
          "name": "loanId",
          "type": "string"
        },
        {
          "indexed": true,
          "internalType": "address",
          "name": "lender",
          "type": "address"
        },
        {
          "indexed": false,
          "internalType": "uint256",
          "name": "amount",
          "type": "uint256"
        }
      ],
      "name": "EscrowFunded",
      "type": "event"
    },
    {
      "anonymous": false,
      "inputs": [
        {
          "indexed": true,
          "internalType": "string",
          "name": "loanId",
          "type": "string"
        },
        {
          "indexed": true,
          "internalType": "address",
          "name": "borrower",
          "type": "address"
        },
        {
          "indexed": false,
          "internalType": "uint256",
          "name": "amount",
          "type": "uint256"
        }
      ],
      "name": "LoanRepaid",
      "type": "event"
    },
    {
      "anonymous": false,
      "inputs": [
        {
          "indexed": true,
          "internalType": "string",
          "name": "loanId",
          "type": "string"
        },
        {
          "indexed": true,
          "internalType": "address",
          "name": "borrower",
          "type": "address"
        },
        {
          "indexed": false,
          "internalType": "uint256",
          "name": "amount",
          "type": "uint256"
        }
      ],
      "name": "PrincipalWithdrawn",
      "type": "event"
    },
    {
      "anonymous": false,
      "inputs": [
        {
          "indexed": true,
          "internalType": "string",
          "name": "loanId",
          "type": "string"
        },
        {
          "indexed": true,
          "internalType": "address",
          "name": "lender",
          "type": "address"
        },
        {
          "indexed": false,
          "internalType": "uint256",
          "name": "amount",
          "type": "uint256"
        }
      ],
      "name": "RepaymentClaimed",
      "type": "event"
    },
    {
      "inputs": [
        {
          "internalType": "string",
          "name": "loanId",
          "type": "string"
        }
      ],
      "name": "cancelLoanRequest",
      "outputs": [],
      "stateMutability": "nonpayable",
      "type": "function"
    },
    {
      "inputs": [
        {
          "internalType": "string",
          "name": "loanId",
          "type": "string"
        }
      ],
      "name": "claimRepayment",
      "outputs": [],
      "stateMutability": "nonpayable",
      "type": "function"
    },
    {
      "inputs": [
        {
          "internalType": "string",
          "name": "loanId",
          "type": "string"
        },
        {
          "internalType": "uint256",
          "name": "principal",
          "type": "uint256"
        }
      ],
      "name": "createLoanRequest",
      "outputs": [],
      "stateMutability": "nonpayable",
      "type": "function"
    },
    {
      "inputs": [
        {
          "internalType": "string",
          "name": "loanId",
          "type": "string"
        }
      ],
      "name": "fundLoan",
      "outputs": [],
      "stateMutability": "payable",
      "type": "function"
    },
    {
      "inputs": [
        {
          "internalType": "string",
          "name": "",
          "type": "string"
        }
      ],
      "name": "loans",
      "outputs": [
        {
          "internalType": "string",
          "name": "loanId",
          "type": "string"
        },
        {
          "internalType": "address",
          "name": "borrower",
          "type": "address"
        },
        {
          "internalType": "address",
          "name": "lender",
          "type": "address"
        },
        {
          "internalType": "uint256",
          "name": "principal",
          "type": "uint256"
        },
        {
          "internalType": "uint256",
          "name": "totalRepaid",
          "type": "uint256"
        },
        {
          "internalType": "uint256",
          "name": "claimable",
          "type": "uint256"
        },
        {
          "internalType": "enum DebtProofEscrow.LoanState",
          "name": "state",
          "type": "uint8"
        }
      ],
      "stateMutability": "view",
      "type": "function"
    },
    {
      "inputs": [
        {
          "internalType": "string",
          "name": "loanId",
          "type": "string"
        }
      ],
      "name": "repayLoan",
      "outputs": [],
      "stateMutability": "payable",
      "type": "function"
    },
    {
      "inputs": [
        {
          "internalType": "string",
          "name": "loanId",
          "type": "string"
        }
      ],
      "name": "withdrawPrincipal",
      "outputs": [],
      "stateMutability": "nonpayable",
      "type": "function"
    }
  ],
  "bytecode": "0x608060405234801561001057600080fd5b50610f97806100206000396000f3fe6080604052600436106100705760003560e01c8063970d77281161004e578063970d7728146100ca578063c6141f63146100ea578063d24b9d9014610126578063f897eeba1461014657600080fd5b8063035dc3d91461007557806361ec41271461008a5780638e329877146100aa575b600080fd5b610088610083366004610b98565b610159565b005b34801561009657600080fd5b506100886100a5366004610b98565b61030a565b3480156100b657600080fd5b506100886100c5366004610b98565b61047e565b3480156100d657600080fd5b506100886100e5366004610bda565b61061e565b3480156100f657600080fd5b5061010a610105366004610c3c565b610806565b60405161011d9796959493929190610d25565b60405180910390f35b34801561013257600080fd5b50610088610141366004610b98565b6108e6565b610088610154366004610b98565b6109fd565b600080838360405161016c929190610dbf565b90815260405190819003602001902060018101549091506001600160a01b03166101a957604051630e7e621d60e01b815260040160405180910390fd5b6002600682015460ff1660048111156101c4576101c4610ced565b141580156101eb57506003600682015460ff1660048111156101e8576101e8610ced565b14155b1561021e576006810154604051633bf2e2f960e11b81526102159160ff1690600290600401610dcf565b60405180910390fd5b3460000361023f5760405163162908e360e11b815260040160405180910390fd5b348160040160008282546102539190610df1565b925050819055503481600501600082825461026e9190610df1565b909155505060038101546004820154108015906102a357506002600682015460ff1660048111156102a1576102a1610ced565b145b156102b85760068101805460ff191660031790555b60405133906102ca9085908590610dbf565b604051908190038120348252907fffe64c5ec0aefbe73dc8a169259738e2b8cb8a537f6dce448f1e932db6f20479906020015b60405180910390a3505050565b600080838360405161031d929190610dbf565b90815260405190819003602001902060018101549091506001600160a01b031661035a57604051630e7e621d60e01b815260040160405180910390fd5b60028101546001600160a01b03163314610386576040516282b42960e81b815260040160405180910390fd5b600581015460008190036103ad5760405163162908e360e11b815260040160405180910390fd5b60006005830181905560028301546040516001600160a01b039091169083908381818185875af1925050503d8060008114610404576040519150601f19603f3d011682016040523d82523d6000602084013e610409565b606091505b505090508061042b576040516312171d8360e31b815260040160405180910390fd5b604051339061043d9087908790610dbf565b604051908190038120848252907f1624798f94b2d78739fb936a662d8cac53bd934c8b89b01f029a26479adce1839060200160405180910390a35050505050565b6000808383604051610491929190610dbf565b90815260405190819003602001902060018101549091506001600160a01b03166104ce57604051630e7e621d60e01b815260040160405180910390fd5b60018101546001600160a01b031633146104fa576040516282b42960e81b815260040160405180910390fd5b6001600682015460ff16600481111561051557610515610ced565b1461053f576006810154604051633bf2e2f960e11b81526102159160ff1690600190600401610dcf565b60068101805460ff19166002179055600181015460038201546040516000926001600160a01b031691908381818185875af1925050503d80600081146105a1576040519150601f19603f3d011682016040523d82523d6000602084013e6105a6565b606091505b50509050806105c8576040516312171d8360e31b815260040160405180910390fd5b60405133906105da9086908690610dbf565b60405190819003812060038501548252907ff8d421e0b5f40bc0004a08dee01d4c489e4e5d87b93cdd26b947f0d3423e184f9060200160405180910390a350505050565b8060000361063f5760405163162908e360e11b815260040160405180910390fd5b60006001600160a01b03166000848460405161065c929190610dbf565b908152604051908190036020019020600101546001600160a01b0316146106965760405163b9000c3b60e01b815260040160405180910390fd5b6040518060e0016040528084848080601f01602080910402602001604051908101604052809392919081815260200183838082843760009201829052509385525050336020840152506040808301829052606083018590526080830182905260a0830182905260c090920181905290516107139086908690610dbf565b908152604051908190036020019020815181906107309082610ea1565b506020820151600180830180546001600160a01b039384166001600160a01b03199182161790915560408501516002850180549190941691161790915560608301516003830155608083015160048084019190915560a0840151600584015560c08401516006840180549193909260ff199092169184908111156107b6576107b6610ced565b0217905550506040513391506107cf9085908590610dbf565b604051908190038120838252907ffa05d08980109e2bcccd04dec4a2cc45c291b50a06d6cd0602caf92858e67294906020016102fd565b805160208183018101805160008252928201919093012091528054819061082c90610e18565b80601f016020809104026020016040519081016040528092919081815260200182805461085890610e18565b80156108a55780601f1061087a576101008083540402835291602001916108a5565b820191906000526020600020905b81548152906001019060200180831161088857829003601f168201915b5050506001840154600285015460038601546004870154600588015460069098015496976001600160a01b0394851697939094169550909350919060ff1687565b60008083836040516108f9929190610dbf565b90815260405190819003602001902060018101549091506001600160a01b031661093657604051630e7e621d60e01b815260040160405180910390fd5b60018101546001600160a01b03163314610962576040516282b42960e81b815260040160405180910390fd5b6000600682015460ff16600481111561097d5761097d610ced565b146109a7576006810154604051633bf2e2f960e11b81526102159160ff1690600090600401610dcf565b60068101805460ff1916600417905560405133906109c89085908590610dbf565b604051908190038120907f82c948553d5a89a950d1eea584e5cd97acb3c60b4bd13533a5258b945a38de4890600090a3505050565b6000808383604051610a10929190610dbf565b90815260405190819003602001902060018101549091506001600160a01b0316610a4d57604051630e7e621d60e01b815260040160405180910390fd5b6000600682015460ff166004811115610a6857610a68610ced565b14610a92576006810154604051633bf2e2f960e11b81526102159160ff1690600090600401610dcf565b80600301543414610ab65760405163162908e360e11b815260040160405180910390fd5b60018101546001600160a01b03163303610ae2576040516282b42960e81b815260040160405180910390fd5b6002810180546001600160a01b0319163390811790915560068201805460ff19166001179055604051610b189085908590610dbf565b604051908190038120348252907f3aff663a8467891866b3283b873f5e8f912954bdef39fc195f1f9c3870c504c2906020016102fd565b60008083601f840112610b6157600080fd5b50813567ffffffffffffffff811115610b7957600080fd5b602083019150836020828501011115610b9157600080fd5b9250929050565b60008060208385031215610bab57600080fd5b823567ffffffffffffffff811115610bc257600080fd5b610bce85828601610b4f565b90969095509350505050565b600080600060408486031215610bef57600080fd5b833567ffffffffffffffff811115610c0657600080fd5b610c1286828701610b4f565b909790965060209590950135949350505050565b634e487b7160e01b600052604160045260246000fd5b600060208284031215610c4e57600080fd5b813567ffffffffffffffff80821115610c6657600080fd5b818401915084601f830112610c7a57600080fd5b813581811115610c8c57610c8c610c26565b604051601f8201601f19908116603f01168101908382118183101715610cb457610cb4610c26565b81604052828152876020848701011115610ccd57600080fd5b826020860160208301376000928101602001929092525095945050505050565b634e487b7160e01b600052602160045260246000fd5b60058110610d2157634e487b7160e01b600052602160045260246000fd5b9052565b60e08152600088518060e084015260005b81811015610d54576020818c01810151610100868401015201610d36565b50610100600081838601015280601f19601f84011685010192505050610d8560208301896001600160a01b03169052565b6001600160a01b03871660408301528560608301528460808301528360a0830152610db360c0830184610d03565b98975050505050505050565b8183823760009101908152919050565b60408101610ddd8285610d03565b610dea6020830184610d03565b9392505050565b80820180821115610e1257634e487b7160e01b600052601160045260246000fd5b92915050565b600181811c90821680610e2c57607f821691505b602082108103610e4c57634e487b7160e01b600052602260045260246000fd5b50919050565b601f821115610e9c57600081815260208120601f850160051c81016020861015610e795750805b601f850160051c820191505b81811015610e9857828155600101610e85565b5050505b505050565b815167ffffffffffffffff811115610ebb57610ebb610c26565b610ecf81610ec98454610e18565b84610e52565b602080601f831160018114610f045760008415610eec5750858301515b600019600386901b1c1916600185901b178555610e98565b600085815260208120601f198616915b82811015610f3357888601518255948401946001909101908401610f14565b5085821015610f515787850151600019600388901b60f8161c191681555b5050505050600190811b0190555056fea2646970667358221220526dab57793a2ae24eb3e69899df99de044eabebeb0b1700760ad65da46d300864736f6c63430008140033",
  "linkReferences": {},
  "deployedLinkReferences": {}
}