{
  "_format": "hh-sol-artifact-1",
  "contractName": "DebtProofRegistry",
  "sourceName": "contracts/DebtProofRegistry.sol",
  "abi": [
    {
      "inputs": [],
      "name": "InvalidInput",
      "type": "error"
    },
    {
      "inputs": [
        {
          "internalType": "bytes32",
          "name": "receiptHash",
          "type": "bytes32"
        }
      ],
      "name": "ProofAlreadyExists",
      "type": "error"
    },
    {
      "inputs": [
        {
          "internalType": "string",
          "name": "proofId",
          "type": "string"
        }
      ],
      "name": "ProofIdAlreadyExists",
      "type": "error"
    },
    {
      "inputs": [
        {
          "internalType": "string",
          "name": "proofId",
          "type": "string"
        }
      ],
      "name": "ProofIdNotFound",
      "type": "error"
    },
    {
      "inputs": [
        {
          "internalType": "bytes32",
          "name": "receiptHash",
          "type": "bytes32"
        }
      ],
      "name": "ProofNotFound",
      "type": "error"
    },
    {
      "anonymous": false,
      "inputs": [
        {
          "indexed": true,
          "internalType": "string",
          "name": "proofId",
          "type": "string"
        },
        {
          "indexed": true,
          "internalType": "bytes32",
          "name": "receiptHash",
          "type": "bytes32"
        },
        {
          "indexed": true,
          "internalType": "address",
          "name": "walletAddress",
          "type": "address"
        },
        {
          "indexed": false,
          "internalType": "uint256",
          "name": "timestamp",
          "type": "uint256"
        }
      ],
      "name": "ProofStored",
      "type": "event"
    },
    {
      "anonymous": false,
      "inputs": [
        {
          "indexed": true,
          "internalType": "bytes32",
          "name": "receiptHash",
          "type": "bytes32"
        },
        {
          "indexed": true,
          "internalType": "address",
          "name": "verifier",
          "type": "address"
        },
        {
          "indexed": false,
          "internalType": "uint256",
          "name": "timestamp",
          "type": "uint256"
        }
      ],
      "name": "ProofVerified",
      "type": "event"
    },
    {
      "inputs": [
        {
          "internalType": "string",
          "name": "proofId",
          "type": "string"
        }
      ],
      "name": "getProof",
      "outputs": [
        {
          "internalType": "bytes32",
          "name": "receiptHash",
          "type": "bytes32"
        },
        {
          "internalType": "uint256",
          "name": "timestamp",
          "type": "uint256"
        },
        {
          "internalType": "address",
          "name": "walletAddress",
          "type": "address"
        }
      ],
      "stateMutability": "view",
      "type": "function"
    },
    {
      "inputs": [
        {
          "internalType": "bytes32",
          "name": "receiptHash",
          "type": "bytes32"
        }
      ],
      "name": "getProofByHash",
      "outputs": [
        {
          "internalType": "string",
          "name": "proofId",
          "type": "string"
        },
        {
          "internalType": "uint256",
          "name": "timestamp",
          "type": "uint256"
        },
        {
          "internalType": "address",
          "name": "walletAddress",
          "type": "address"
        }
      ],
      "stateMutability": "view",
      "type": "function"
    },
    {
      "inputs": [
        {
          "internalType": "string",
          "name": "proofId",
          "type": "string"
        },
        {
          "internalType": "bytes32",
          "name": "receiptHash",
          "type": "bytes32"
        }
      ],
      "name": "storeProof",
      "outputs": [],
      "stateMutability": "nonpayable",
      "type": "function"
    },
    {
      "inputs": [
        {
          "internalType": "bytes32",
          "name": "receiptHash",
          "type": "bytes32"
        }
      ],
      "name": "verifyProof",
      "outputs": [
        {
          "internalType": "string",
          "name": "proofId",
          "type": "string"
        },
        {
          "internalType": "uint256",
          "name": "timestamp",
          "type": "uint256"
        },
        {
          "internalType": "address",
          "name": "walletAddress",
          "type": "address"
        }
      ],
      "stateMutability": "nonpayable",
      "type": "function"
    }
  ],
  "bytecode": "0x608060405234801561001057600080fd5b50610999806100206000396000f3fe608060405234801561001057600080fd5b506004361061004c5760003560e01c8063a10e478114610051578063b142b4ec14610066578063bfb00c6f14610091578063d57763a1146100a4575b600080fd5b61006461005f3660046106b8565b6100db565b005b610079610074366004610704565b6102b2565b6040516100889392919061071d565b60405180910390f35b61007961009f366004610704565b61040d565b6100b76100b2366004610783565b610531565b6040805193845260208401929092526001600160a01b031690820152606001610088565b8115806100e6575080155b156101045760405163b4fa3fb360e01b815260040160405180910390fd5b6000818152602081905260409020600201541561013c5760405163d18b7fa960e01b8152600481018290526024015b60405180910390fd5b6000801b600184846040516101529291906107c5565b908152602001604051809103902054146101835782826040516363bb2b1d60e11b81526004016101339291906107d5565b604051806080016040528084848080601f01602080910402602001604051908101604052809392919081815260200183838082843760009201829052509385525050506020808301859052426040808501919091523360609094019390935284825281905220815181906101f790826108a3565b50602082015181600101556040820151816002015560608201518160030160006101000a8154816001600160a01b0302191690836001600160a01b03160217905550905050806001848460405161024f9291906107c5565b908152604051908190036020018120919091553390829061027390869086906107c5565b604051908190038120428252907f6cf8bea5fb33c823be43e0f16a360794df152ed47a8c824dfee9c99dbc13134a9060200160405180910390a4505050565b606060008060008060008681526020019081526020016000206040518060800160405290816000820180546102e69061081a565b80601f01602080910402602001604051908101604052809291908181526020018280546103129061081a565b801561035f5780601f106103345761010080835404028352916020019161035f565b820191906000526020600020905b81548152906001019060200180831161034257829003601f168201915b50505091835250506001820154602082015260028201546040808301919091526003909201546001600160a01b03166060909101528101519091506000036103bd57604051630603114960e01b815260048101869052602401610133565b604051428152339086907f3cbbb4765049102f7d16784aa5e5d53a1f94d5da6878a63974ffabb4989147d69060200160405180910390a38051604082015160609092015190969195509350915050565b606060008060008060008681526020019081526020016000206040518060800160405290816000820180546104419061081a565b80601f016020809104026020016040519081016040528092919081815260200182805461046d9061081a565b80156104ba5780601f1061048f576101008083540402835291602001916104ba565b820191906000526020600020905b81548152906001019060200180831161049d57829003601f168201915b50505091835250506001820154602082015260028201546040808301919091526003909201546001600160a01b031660609091015281015190915060000361051857604051630603114960e01b815260048101869052602401610133565b8051604082015160609092015190969195509350915050565b600080600080600186866040516105499291906107c5565b9081526040519081900360200190205490508061057d57858560405163996d0ceb60e01b81526004016101339291906107d5565b6000818152602081905260408082208151608081019092528054829082906105a49061081a565b80601f01602080910402602001604051908101604052809291908181526020018280546105d09061081a565b801561061d5780601f106105f25761010080835404028352916020019161061d565b820191906000526020600020905b81548152906001019060200180831161060057829003601f168201915b5050509183525050600182015460208083019190915260028301546040808401919091526003909301546001600160a01b03166060928301528301519183015192015190999198509650945050505050565b60008083601f84011261068157600080fd5b50813567ffffffffffffffff81111561069957600080fd5b6020830191508360208285010111156106b157600080fd5b9250929050565b6000806000604084860312156106cd57600080fd5b833567ffffffffffffffff8111156106e457600080fd5b6106f08682870161066f565b909790965060209590950135949350505050565b60006020828403121561071657600080fd5b5035919050565b606081526000845180606084015260005b8181101561074b576020818801810151608086840101520161072e565b506000608082850181019190915260208401959095526001600160a01b0393909316604083015250601f909101601f19160101919050565b6000806020838503121561079657600080fd5b823567ffffffffffffffff8111156107ad57600080fd5b6107b98582860161066f565b90969095509350505050565b8183823760009101908152919050565b60208152816020820152818360408301376000818301604090810191909152601f909201601f19160101919050565b634e487b7160e01b600052604160045260246000fd5b600181811c9082168061082e57607f821691505b60208210810361084e57634e487b7160e01b600052602260045260246000fd5b50919050565b601f82111561089e57600081815260208120601f850160051c8101602086101561087b5750805b601f850160051c820191505b8181101561089a57828155600101610887565b5050505b505050565b815167ffffffffffffffff8111156108bd576108bd610804565b6108d1816108cb845461081a565b84610854565b602080601f83116001811461090657600084156108ee5750858301515b600019600386901b1c1916600185901b17855561089a565b600085815260208120601f198616915b8281101561093557888601518255948401946001909101908401610916565b50858210156109535787850151600019600388901b60f8161c191681555b5050505050600190811b0190555056fea2646970667358221220d119b980c7580485c3a24330bf69830c212722502e052e56230d1bce65d5e86364736f6c63430008140033",
  "linkReferences": {},
  "deployedLinkReferences": {}
}