{"contracts/DebtProofEscrow.sol":{"DebtProofEscrow":{"abi":[{"inputs":[],"name":"InvalidAmount","type":"error"},{"inputs":[{"internalType":"enum DebtProofEscrow.LoanState","name":"current","type":"uint8"},{"internalType":"enum DebtProofEscrow.LoanState","name":"expected","type":"uint8"}],"name":"InvalidState","type":"error"},{"inputs":[],"name":"LoanAlreadyExists","type":"error"},{"inputs":[],"name":"LoanNotFound","type":"error"},{"inputs":[],"name":"TransferFailed","type":"error"},{"inputs":[],"name":"Unauthorized","type":"error"},{"anonymous":false,"inputs":[{"indexed":true,"internalType":"string","name":"loanId","type":"string"},{"indexed":true,"internalType":"address","name":"borrower","type":"address"}],"name":"EscrowCancelled","type":"event"},{"anonymous":false,"inputs":[{"indexed":true,"internalType":"string","name":"loanId","type":"string"},{"indexed":true,"internalType":"address","name":"borrower","type":"address"},{"indexed":false,"internalType":"uint256","name":"principal","type":"uint256"}],"name":"EscrowCreated","type":"event"},{"anonymous":false,"inputs":[{"indexed":true,"internalType":"string","name":"loanId","type":"string"},{"indexed":true,"internalType":"address","name":"lender","type":"address"},{"indexed":false,"internalType":"uint256","name":"amount","type":"uint256"}],"name":"EscrowFunded","type":"event"},{"anonymous":false,"inputs":[{"indexed":true,"internalType":"string","name":"loanId","type":"string"},{"indexed":true,"internalType":"address","name":"borrower","type":"address"},{"indexed":false,"internalType":"uint256","name":"amount","type":"uint256"}],"name":"LoanRepaid","type":"event"},{"anonymous":false,"inputs":[{"indexed":true,"internalType":"string","name":"loanId","type":"string"},{"indexed":true,"internalType":"address","name":"borrower","type":"address"},{"indexed":false,"internalType":"uint256","name":"amount","type":"uint256"}],"name":"PrincipalWithdrawn","type":"event"},{"anonymous":false,"inputs":[{"indexed":true,"internalType":"string","name":"loanId","type":"string"},{"indexed":true,"internalType":"address","name":"lender","type":"address"},{"indexed":false,"internalType":"uint256","name":"amount","type":"uint256"}],"name":"RepaymentClaimed","type":"event"},{"inputs":[{"internalType":"string","name":"loanId","type":"string"}],"name":"cancelLoanRequest","outputs":[],"stateMutability":"nonpayable","type":"function"},{"inputs":[{"internalType":"string","name":"loanId","type":"string"}],"name":"claimRepayment","outputs":[],"stateMutability":"nonpayable","type":"function"},{"inputs":[{"internalType":"string","name":"loanId","type":"string"},{"internalType":"uint256","name":"principal","type":"uint256"}],"name":"createLoanRequest","outputs":[],"stateMutability":"nonpayable","type":"function"},{"inputs":[{"internalType":"string","name":"loanId","type":"string"}],"name":"fundLoan","outputs":[],"stateMutability":"payable","type":"function"},{"inputs":[{"internalType":"string","name":"","type":"string"}],"name":"loans","outputs":[{"internalType":"string","name":"loanId","type":"string"},{"internalType":"address","name":"borrower","type":"address"},{"internalType":"address","name":"lender","type":"address"},{"internalType":"uint256","name":"principal","type":"uint256"},{"internalType":"uint256","name":"totalRepaid","type":"uint256"},{"internalType":"uint256","name":"claimable","type":"uint256"},{"internalType":"enum DebtProofEscrow.LoanState","name":"state","type":"uint8"}],"stateMutability":"view","type":"function"},{"inputs":[{"internalType":"string","name":"loanId","type":"string"}],"name":"repayLoan","outputs":[],"stateMutability":"payable","type":"function"},{"inputs":[{"internalType":"string","name":"loanId","type":"string"}],"name":"withdrawPrincipal","outputs":[],"stateMutability":"nonpayable","type":"function"}],"evm":{"bytecode":{"linkReferences":{},"object":"608060405234801561001057600080fd5b50610f97806100206000396000f3fe6080604052600436106100705760003560e01c8063970d77281161004e578063970d7728146100ca578063c6141f63146100ea578063d24b9d9014610126578063f897eeba1461014657600080fd5b8063035dc3d91461007557806361ec41271461008a5780638e329877146100aa575b600080fd5b610088610083366004610b98565b610159565b005b34801561009657600080fd5b506100886100a5366004610b98565b61030a565b3480156100b657600080fd5b506100886100c5366004610b98565b61047e565b3480156100d657600080fd5b506100886100e5366004610bda565b61061e565b3480156100f657600080fd5b5061010a610105366004610c3c565b610806565b60405161011d9796959493929190610d25565b60405180910390f35b34801561013257600080fd5b50610088610141366004610b98565b6108e6565b610088610154366004610b98565b6109fd565b600080838360405161016c929190610dbf565b90815260405190819003602001902060018101549091506001600160a01b03166101a957604051630e7e621d60e01b815260040160405180910390fd5b6002600682015460ff1660048111156101c4576101c4610ced565b141580156101eb57506003600682015460ff1660048111156101e8576101e8610ced565b14155b1561021e576006810154604051633bf2e2f960e11b81526102159160ff1690600290600401610dcf565b60405180910390fd5b3460000361023f5760405163162908e360e11b815260040160405180910390fd5b348160040160008282546102539190610df1565b925050819055503481600501600082825461026e9190610df1565b909155505060038101546004820154108015906102a357506002600682015460ff1660048111156102a1576102a1610ced565b145b156102b85760068101805460ff191660031790555b60405133906102ca9085908590610dbf565b604051908190038120348252907fffe64c5ec0aefbe73dc8a169259738e2b8cb8a537f6dce448f1e932db6f20479906020015b60405180910390a3505050565b600080838360405161031d929190610dbf565b90815260405190819003602001902060018101549091506001600160a01b031661035a57604051630e7e621d60e01b815260040160405180910390fd5b60028101546001600160a01b03163314610386576040516282b42960e81b815260040160405180910390fd5b600581015460008190036103ad5760405163162908e360e11b815260040160405180910390fd5b60006005830181905560028301546040516001600160a01b039091169083908381818185875af1925050503d8060008114610404576040519150601f19603f3d011682016040523d82523d6000602084013e610409565b606091505b505090508061042b576040516312171d8360e31b815260040160405180910390fd5b604051339061043d9087908790610dbf565b604051908190038120848252907f1624798f94b2d78739fb936a662d8cac53bd934c8b89b01f029a26479adce1839060200160405180910390a35050505050565b6000808383604051610491929190610dbf565b90815260405190819003602001902060018101549091506001600160a01b03166104ce57604051630e7e621d60e01b815260040160405180910390fd5b60018101546001600160a01b031633146104fa576040516282b42960e81b815260040160405180910390fd5b6001600682015460ff16600481111561051557610515610ced565b1461053f576006810154604051633bf2e2f960e11b81526102159160ff1690600190600401610dcf565b60068101805460ff19166002179055600181015460038201546040516000926001600160a01b031691908381818185875af1925050503d80600081146105a1576040519150601f19603f3d011682016040523d82523d6000602084013e6105a6565b606091505b50509050806105c8576040516312171d8360e31b815260040160405180910390fd5b60405133906105da9086908690610dbf565b60405190819003812060038501548252907ff8d421e0b5f40bc0004a08dee01d4c489e4e5d87b93cdd26b947f0d3423e184f9060200160405180910390a350505050565b8060000361063f5760405163162908e360e11b815260040160405180910390fd5b60006001600160a01b03166000848460405161065c929190610dbf565b908152604051908190036020019020600101546001600160a01b0316146106965760405163b9000c3b60e01b815260040160405180910390fd5b6040518060e0016040528084848080601f01602080910402602001604051908101604052809392919081815260200183838082843760009201829052509385525050336020840152506040808301829052606083018590526080830182905260a0830182905260c090920181905290516107139086908690610dbf565b908152604051908190036020019020815181906107309082610ea1565b506020820151600180830180546001600160a01b039384166001600160a01b03199182161790915560408501516002850180549190941691161790915560608301516003830155608083015160048084019190915560a0840151600584015560c08401516006840180549193909260ff199092169184908111156107b6576107b6610ced565b0217905550506040513391506107cf9085908590610dbf565b604051908190038120838252907ffa05d08980109e2bcccd04dec4a2cc45c291b50a06d6cd0602caf92858e67294906020016102fd565b805160208183018101805160008252928201919093012091528054819061082c90610e18565b80601f016020809104026020016040519081016040528092919081815260200182805461085890610e18565b80156108a55780601f1061087a576101008083540402835291602001916108a5565b820191906000526020600020905b81548152906001019060200180831161088857829003601f168201915b5050506001840154600285015460038601546004870154600588015460069098015496976001600160a01b0394851697939094169550909350919060ff1687565b60008083836040516108f9929190610dbf565b90815260405190819003602001902060018101549091506001600160a01b031661093657604051630e7e621d60e01b815260040160405180910390fd5b60018101546001600160a01b03163314610962576040516282b42960e81b815260040160405180910390fd5b6000600682015460ff16600481111561097d5761097d610ced565b146109a7576006810154604051633bf2e2f960e11b81526102159160ff1690600090600401610dcf565b60068101805460ff1916600417905560405133906109c89085908590610dbf565b604051908190038120907f82c948553d5a89a950d1eea584e5cd97acb3c60b4bd13533a5258b945a38de4890600090a3505050565b6000808383604051610a10929190610dbf565b90815260405190819003602001902060018101549091506001600160a01b0316610a4d57604051630e7e621d60e01b815260040160405180910390fd5b6000600682015460ff166004811115610a6857610a68610ced565b14610a92576006810154604051633bf2e2f960e11b81526102159160ff1690600090600401610dcf565b80600301543414610ab65760405163162908e360e11b815260040160405180910390fd5b60018101546001600160a01b03163303610ae2576040516282b42960e81b815260040160405180910390fd5b6002810180546001600160a01b0319163390811790915560068201805460ff19166001179055604051610b189085908590610dbf565b604051908190038120348252907f3aff663a8467891866b3283b873f5e8f912954bdef39fc195f1f9c3870c504c2906020016102fd565b60008083601f840112610b6157600080fd5b50813567ffffffffffffffff811115610b7957600080fd5b602083019150836020828501011115610b9157600080fd5b9250929050565b60008060208385031215610bab57600080fd5b823567ffffffffffffffff811115610bc257600080fd5b610bce85828601610b4f565b90969095509350505050565b600080600060408486031215610bef57600080fd5b833567ffffffffffffffff811115610c0657600080fd5b610c1286828701610b4f565b909790965060209590950135949350505050565b634e487b7160e01b600052604160045260246000fd5b600060208284031215610c4e57600080fd5b813567ffffffffffffffff80821115610c6657600080fd5b818401915084601f830112610c7a57600080fd5b813581811115610c8c57610c8c610c26565b604051601f8201601f19908116603f01168101908382118183101715610cb457610cb4610c26565b81604052828152876020848701011115610ccd57600080fd5b826020860160208301376000928101602001929092525095945050505050565b634e487b7160e01b600052602160045260246000fd5b60058110610d2157634e487b7160e01b600052602160045260246000fd5b9052565b60e08152600088518060e084015260005b81811015610d54576020818c01810151610100868401015201610d36565b50610100600081838601015280601f19601f84011685010192505050610d8560208301896001600160a01b03169052565b6001600160a01b03871660408301528560608301528460808301528360a0830152610db360c0830184610d03565b98975050505050505050565b8183823760009101908152919050565b60408101610ddd8285610d03565b610dea6020830184610d03565b9392505050565b80820180821115610e1257634e487b7160e01b600052601160045260246000fd5b92915050565b600181811c90821680610e2c57607f821691505b602082108103610e4c57634e487b7160e01b600052602260045260246000fd5b50919050565b601f821115610e9c57600081815260208120601f850160051c81016020861015610e795750805b601f850160051c820191505b81811015610e9857828155600101610e85565b5050505b505050565b815167ffffffffffffffff811115610ebb57610ebb610c26565b610ecf81610ec98454610e18565b84610e52565b602080601f831160018114610f045760008415610eec5750858301515b600019600386901b1c1916600185901b178555610e98565b600085815260208120601f198616915b82811015610f3357888601518255948401946001909101908401610f14565b5085821015610f515787850151600019600388901b60f8161c191681555b5050505050600190811b0190555056fea2646970667358221220526dab57793a2ae24eb3e69899df99de044eabebeb0b1700760ad65da46d300864736f6c63430008140033","opcodes":"PUSH1 0x80 PUSH1 0x40 MSTORE CALLVALUE DUP1 ISZERO PUSH2 0x10 JUMPI PUSH1 0x0 DUP1 REVERT JUMPDEST POP PUSH2 0xF97 DUP1 PUSH2 0x20 PUSH1 0x0 CODECOPY PUSH1 0x0 RETURN INVALID PUSH1 0x80 PUSH1 0x40 MSTORE PUSH1 0x4 CALLDATASIZE LT PUSH2 0x70 JUMPI PUSH1 0x0 CALLDATALOAD PUSH1 0xE0 SHR DUP1 PUSH4 0x970D7728 GT PUSH2 0x4E JUMPI DUP1 PUSH4 0x970D7728 EQ PUSH2 0xCA JUMPI DUP1 PUSH4 0xC6141F63 EQ PUSH2 0xEA JUMPI DUP1 PUSH4 0xD24B9D90 EQ PUSH2 0x126 JUMPI DUP1 PUSH4 0xF897EEBA EQ PUSH2 0x146 JUMPI PUSH1 0x0 DUP1 REVERT JUMPDEST DUP1 PUSH4 0x35DC3D9 EQ PUSH2 0x75 JUMPI DUP1 PUSH4 0x61EC4127 EQ PUSH2 0x8A JUMPI DUP1 PUSH4 0x8E329877 EQ PUSH2 0xAA JUMPI JUMPDEST PUSH1 0x0 DUP1 REVERT JUMPDEST PUSH2 0x88 PUSH2 0x83 CALLDATASIZE PUSH1 0x4 PUSH2 0xB98 JUMP JUMPDEST PUSH2 0x159 JUMP JUMPDEST STOP JUMPDEST CALLVALUE DUP1 ISZERO PUSH2 0x96 JUMPI PUSH1 0x0 DUP1 REVERT JUMPDEST POP PUSH2 0x88 PUSH2 0xA5 CALLDATASIZE PUSH1 0x4 PUSH2 0xB98 JUMP JUMPDEST PUSH2 0x30A JUMP JUMPDEST CALLVALUE DUP1 ISZERO PUSH2 0xB6 JUMPI PUSH1 0x0 DUP1 REVERT JUMPDEST POP PUSH2 0x88 PUSH2 0xC5 CALLDATASIZE PUSH1 0x4 PUSH2 0xB98 JUMP JUMPDEST PUSH2 0x47E JUMP JUMPDEST CALLVALUE DUP1 ISZERO PUSH2 0xD6 JUMPI PUSH1 0x0 DUP1 REVERT JUMPDEST POP PUSH2 0x88 PUSH2 0xE5 CALLDATASIZE PUSH1 0x4 PUSH2 0xBDA JUMP JUMPDEST PUSH2 0x61E JUMP JUMPDEST CALLVALUE DUP1 ISZERO PUSH2 0xF6 JUMPI PUSH1 0x0 DUP1 REVERT JUMPDEST POP PUSH2 0x10A PUSH2 0x105 CALLDATASIZE PUSH1 0x4 PUSH2 0xC3C JUMP JUMPDEST PUSH2 0x806 JUMP JUMPDEST PUSH1 0x40 MLOAD PUSH2 0x11D SWAP8 SWAP7 SWAP6 SWAP5 SWAP4 SWAP3 SWAP2 SWAP1 PUSH2 0xD25 JUMP JUMPDEST PUSH1 0x40 MLOAD DUP1 SWAP2 SUB SWAP1 RETURN JUMPDEST CALLVALUE DUP1 ISZERO PUSH2 0x132 JUMPI PUSH1 0x0 DUP1 REVERT JUMPDEST POP PUSH2 0x88 PUSH2 0x141 CALLDATASIZE PUSH1 0x4 PUSH2 0xB98 JUMP JUMPDEST PUSH2 0x8E6 JUMP JUMPDEST PUSH2 0x88 PUSH2 0x154 CALLDATASIZE PUSH1 0x4 PUSH2 0xB98 JUMP JUMPDEST PUSH2 0x9FD JUMP JUMPDEST PUSH1 0x0 DUP1 DUP4 DUP4 PUSH1 0x40 MLOAD PUSH2 0x16C SWAP3 SWAP2 SWAP1 PUSH2 0xDBF JUMP JUMPDEST SWAP1 DUP2 MSTORE PUSH1 0x40 MLOAD SWAP1 DUP2 SWAP1 SUB PUSH1 0x20 ADD SWAP1 KECCAK256 PUSH1 0x1 DUP2 ADD SLOAD SWAP1 SWAP2 POP PUSH1 0x1 PUSH1 0x1 PUSH1 0xA0 SHL SUB AND PUSH2 0x1A9 JUMPI PUSH1 0x40 MLOAD PUSH4 0xE7E621D PUSH1 0xE0 SHL DUP2 MSTORE PUSH1 0x4 ADD PUSH1 0x40 MLOAD DUP1 SWAP2 SUB SWAP1 REVERT JUMPDEST PUSH1 0x2 PUSH1 0x6 DUP3 ADD SLOAD PUSH1 0xFF AND PUSH1 0x4 DUP2 GT ISZERO PUSH2 0x1C4 JUMPI PUSH2 0x1C4 PUSH2 0xCED JUMP JUMPDEST EQ ISZERO DUP1 ISZERO PUSH2 0x1EB JUMPI POP PUSH1 0x3 PUSH1 0x6 DUP3 ADD SLOAD PUSH1 0xFF AND PUSH1 0x4 DUP2 GT ISZERO PUSH2 0x1E8 JUMPI PUSH2 0x1E8 PUSH2 0xCED JUMP JUMPDEST EQ ISZERO JUMPDEST ISZERO PUSH2 0x21E JUMPI PUSH1 0x6 DUP2 ADD SLOAD PUSH1 0x40 MLOAD PUSH4 0x3BF2E2F9 PUSH1 0xE1 SHL DUP2 MSTORE PUSH2 0x215 SWAP2 PUSH1 0xFF AND SWAP1 PUSH1 0x2 SWAP1 PUSH1 0x4 ADD PUSH2 0xDCF JUMP JUMPDEST PUSH1 0x40 MLOAD DUP1 SWAP2 SUB SWAP1 REVERT JUMPDEST CALLVALUE PUSH1 0x0 SUB PUSH2 0x23F JUMPI PUSH1 0x40 MLOAD PUSH4 0x162908E3 PUSH1 0xE1 SHL DUP2 MSTORE PUSH1 0x4 ADD PUSH1 0x40 MLOAD DUP1 SWAP2 SUB SWAP1 REVERT JUMPDEST CALLVALUE DUP2 PUSH1 0x4 ADD PUSH1 0x0 DUP3 DUP3 SLOAD PUSH2 0x253 SWAP2 SWAP1 PUSH2 0xDF1 JUMP JUMPDEST SWAP3 POP POP DUP2 SWAP1 SSTORE POP CALLVALUE DUP2 PUSH1 0x5 ADD PUSH1 0x0 DUP3 DUP3 SLOAD PUSH2 0x26E SWAP2 SWAP1 PUSH2 0xDF1 JUMP JUMPDEST SWAP1 SWAP2 SSTORE POP POP PUSH1 0x3 DUP2 ADD SLOAD PUSH1 0x4 DUP3 ADD SLOAD LT DUP1 ISZERO SWAP1 PUSH2 0x2A3 JUMPI POP PUSH1 0x2 PUSH1 0x6 DUP3 ADD SLOAD PUSH1 0xFF AND PUSH1 0x4 DUP2 GT ISZERO PUSH2 0x2A1 JUMPI PUSH2 0x2A1 PUSH2 0xCED JUMP JUMPDEST EQ JUMPDEST ISZERO PUSH2 0x2B8 JUMPI PUSH1 0x6 DUP2 ADD DUP1 SLOAD PUSH1 0xFF NOT AND PUSH1 0x3 OR SWAP1 SSTORE JUMPDEST PUSH1 0x40 MLOAD CALLER SWAP1 PUSH2 0x2CA SWAP1 DUP6 SWAP1 DUP6 SWAP1 PUSH2 0xDBF JUMP JUMPDEST PUSH1 0x40 MLOAD SWAP1 DUP2 SWAP1 SUB DUP2 KECCAK256 CALLVALUE DUP3 MSTORE SWAP1 PUSH32 0xFFE64C5EC0AEFBE73DC8A169259738E2B8CB8A537F6DCE448F1E932DB6F20479 SWAP1 PUSH1 0x20 ADD JUMPDEST PUSH1 0x40 MLOAD DUP1 SWAP2 SUB SWAP1 LOG3 POP POP POP JUMP JUMPDEST PUSH1 0x0 DUP1 DUP4 DUP4 PUSH1 0x40 MLOAD PUSH2 0x31D SWAP3 SWAP2 SWAP1 PUSH2 0xDBF JUMP JUMPDEST SWAP1 DUP2 MSTORE PUSH1 0x40 MLOAD SWAP1 DUP2 SWAP1 SUB PUSH1 0x20 ADD SWAP1 KECCAK256 PUSH1 0x1 DUP2 ADD SLOAD SWAP1 SWAP2 POP PUSH1 0x1 PUSH1 0x1 PUSH1 0xA0 SHL SUB AND PUSH2 0x35A JUMPI PUSH1 0x40 MLOAD PUSH4 0xE7E621D PUSH1 0xE0 SHL DUP2 MSTORE PUSH1 0x4 ADD PUSH1 0x40 MLOAD DUP1 SWAP2 SUB SWAP1 REVERT JUMPDEST PUSH1 0x2 DUP2 ADD SLOAD PUSH1 0x1 PUSH1 0x1 PUSH1 0xA0 SHL SUB AND CALLER EQ PUSH2 0x386 JUMPI PUSH1 0x40 MLOAD PUSH3 0x82B429 PUSH1 0xE8 SHL DUP2 MSTORE PUSH1 0x4 ADD PUSH1 0x40 MLOAD DUP1 SWAP2 SUB SWAP1 REVERT JUMPDEST PUSH1 0x5 DUP2 ADD SLOAD PUSH1 0x0 DUP2 SWAP1 SUB PUSH2 0x3AD JUMPI PUSH1 0x40 MLOAD PUSH4 0x162908E3 PUSH1 0xE1 SHL DUP2 MSTORE PUSH1 0x4 ADD PUSH1 0x40 MLOAD DUP1 SWAP2 SUB SWAP1 REVERT JUMPDEST PUSH1 0x0 PUSH1 0x5 DUP4 ADD DUP2 SWAP1 SSTORE PUSH1 0x2 DUP4 ADD SLOAD PUSH1 0x40 MLOAD PUSH1 0x1 PUSH1 0x1 PUSH1 0xA0 SHL SUB SWAP1 SWAP2 AND SWAP1 DUP4 SWAP1 DUP4 DUP2 DUP2 DUP2 DUP6 DUP8 GAS CALL SWAP3 POP POP POP RETURNDATASIZE DUP1 PUSH1 0x0 DUP2 EQ PUSH2 0x404 JUMPI PUSH1 0x40 MLOAD SWAP2 POP PUSH1 0x1F NOT PUSH1 0x3F RETURNDATASIZE ADD AND DUP3 ADD PUSH1 0x40 MSTORE RETURNDATASIZE DUP3 MSTORE RETURNDATASIZE PUSH1 0x0 PUSH1 0x20 DUP5 ADD RETURNDATACOPY PUSH2 0x409 JUMP JUMPDEST PUSH1 0x60 SWAP2 POP JUMPDEST POP POP SWAP1 POP DUP1 PUSH2 0x42B JUMPI PUSH1 0x40 MLOAD PUSH4 0x12171D83 PUSH1 0xE3 SHL DUP2 MSTORE PUSH1 0x4 ADD PUSH1 0x40 MLOAD DUP1 SWAP2 SUB SWAP1 REVERT JUMPDEST PUSH1 0x40 MLOAD CALLER SWAP1 PUSH2 0x43D SWAP1 DUP8 SWAP1 DUP8 SWAP1 PUSH2 0xDBF JUMP JUMPDEST PUSH1 0x40 MLOAD SWAP1 DUP2 SWAP1 SUB DUP2 KECCAK256 DUP5 DUP3 MSTORE SWAP1 PUSH32 0x1624798F94B2D78739FB936A662D8CAC53BD934C8B89B01F029A26479ADCE183 SWAP1 PUSH1 0x20 ADD PUSH1 0x40 MLOAD DUP1 SWAP2 SUB SWAP1 LOG3 POP POP POP POP POP JUMP JUMPDEST PUSH1 0x0 DUP1 DUP4 DUP4 PUSH1 0x40 MLOAD PUSH2 0x491 SWAP3 SWAP2 SWAP1 PUSH2 0xDBF JUMP JUMPDEST SWAP1 DUP2 MSTORE PUSH1 0x40 MLOAD SWAP1 DUP2 SWAP1 SUB PUSH1 0x20 ADD SWAP1 KECCAK256 PUSH1 0x1 DUP2 ADD SLOAD SWAP1 SWAP2 POP PUSH1 0x1 PUSH1 0x1 PUSH1 0xA0 SHL SUB AND PUSH2 0x4CE JUMPI PUSH1 0x40 MLOAD PUSH4 0xE7E621D PUSH1 0xE0 SHL DUP2 MSTORE PUSH1 0x4 ADD PUSH1 0x40 MLOAD DUP1 SWAP2 SUB SWAP1 REVERT JUMPDEST PUSH1 0x1 DUP2 ADD SLOAD PUSH1 0x1 PUSH1 0x1 PUSH1 0xA0 SHL SUB AND CALLER EQ PUSH2 0x4FA JUMPI PUSH1 0x40 MLOAD PUSH3 0x82B429 PUSH1 0xE8 SHL DUP2 MSTORE PUSH1 0x4 ADD PUSH1 0x40 MLOAD DUP1 SWAP2 SUB SWAP1 REVERT JUMPDEST PUSH1 0x1 PUSH1 0x6 DUP3 ADD SLOAD PUSH1 0xFF AND PUSH1 0x4 DUP2 GT ISZERO PUSH2 0x515 JUMPI PUSH2 0x515 PUSH2 0xCED JUMP JUMPDEST EQ PUSH2 0x53F JUMPI PUSH1 0x6 DUP2 ADD SLOAD PUSH1 0x40 MLOAD PUSH4 0x3BF2E2F9 PUSH1 0xE1 SHL DUP2 MSTORE PUSH2 0x215 SWAP2 PUSH1 0xFF AND SWAP1 PUSH1 0x1 SWAP1 PUSH1 0x4 ADD PUSH2 0xDCF JUMP JUMPDEST PUSH1 0x6 DUP2 ADD DUP1 SLOAD PUSH1 0xFF NOT AND PUSH1 0x2 OR SWAP1 SSTORE PUSH1 0x1 DUP2 ADD SLOAD PUSH1 0x3 DUP3 ADD SLOAD PUSH1 0x40 MLOAD PUSH1 0x0 SWAP3 PUSH1 0x1 PUSH1 0x1 PUSH1 0xA0 SHL SUB AND SWAP2 SWAP1 DUP4 DUP2 DUP2 DUP2 DUP6 DUP8 GAS CALL SWAP3 POP POP POP RETURNDATASIZE DUP1 PUSH1 0x0 DUP2 EQ PUSH2 0x5A1 JUMPI PUSH1 0x40 MLOAD SWAP2 POP PUSH1 0x1F NOT PUSH1 0x3F RETURNDATASIZE ADD AND DUP3 ADD PUSH1 0x40 MSTORE RETURNDATASIZE DUP3 MSTORE RETURNDATASIZE PUSH1 0x0 PUSH1 0x20 DUP5 ADD RETURNDATACOPY PUSH2 0x5A6 JUMP JUMPDEST PUSH1 0x60 SWAP2 POP JUMPDEST POP POP SWAP1 POP DUP1 PUSH2 0x5C8 JUMPI PUSH1 0x40 MLOAD PUSH4 0x12171D83 PUSH1 0xE3 SHL DUP2 MSTORE PUSH1 0x4 ADD PUSH1 0x40 MLOAD DUP1 SWAP2 SUB SWAP1 REVERT JUMPDEST PUSH1 0x40 MLOAD CALLER SWAP1 PUSH2 0x5DA SWAP1 DUP7 SWAP1 DUP7 SWAP1 PUSH2 0xDBF JUMP JUMPDEST PUSH1 0x40 MLOAD SWAP1 DUP2 SWAP1 SUB DUP2 KECCAK256 PUSH1 0x3 DUP6 ADD SLOAD DUP3 MSTORE SWAP1 PUSH32 0xF8D421E0B5F40BC0004A08DEE01D4C489E4E5D87B93CDD26B947F0D3423E184F SWAP1 PUSH1 0x20 ADD PUSH1 0x40 MLOAD DUP1 SWAP2 SUB SWAP1 LOG3 POP POP POP POP JUMP JUMPDEST DUP1 PUSH1 0x0 SUB PUSH2 0x63F JUMPI PUSH1 0x40 MLOAD PUSH4 0x162908E3 PUSH1 0xE1 SHL DUP2 MSTORE PUSH1 0x4 ADD PUSH1 0x40 MLOAD DUP1 SWAP2 SUB SWAP1 REVERT JUMPDEST PUSH1 0x0 PUSH1 0x1 PUSH1 0x1 PUSH1 0xA0 SHL SUB AND PUSH1 0x0 DUP5 DUP5 PUSH1 0x40 MLOAD PUSH2 0x65C SWAP3 SWAP2 SWAP1 PUSH2 0xDBF JUMP JUMPDEST SWAP1 DUP2 MSTORE PUSH1 0x40 MLOAD SWAP1 DUP2 SWAP1 SUB PUSH1 0x20 ADD SWAP1 KECCAK256 PUSH1 0x1 ADD SLOAD PUSH1 0x1 PUSH1 0x1 PUSH1 0xA0 SHL SUB AND EQ PUSH2 0x696 JUMPI PUSH1 0x40 MLOAD PUSH4 0xB9000C3B PUSH1 0xE0 SHL DUP2 MSTORE PUSH1 0x4 ADD PUSH1 0x40 MLOAD DUP1 SWAP2 SUB SWAP1 REVERT JUMPDEST PUSH1 0x40 MLOAD DUP1 PUSH1 0xE0 ADD PUSH1 0x40 MSTORE DUP1 DUP5 DUP5 DUP1 DUP1 PUSH1 0x1F ADD PUSH1 0x20 DUP1 SWAP2 DIV MUL PUSH1 0x20 ADD PUSH1 0x40 MLOAD SWAP1 DUP2 ADD PUSH1 0x40 MSTORE DUP1 SWAP4 SWAP3 SWAP2 SWAP1 DUP2 DUP2 MSTORE PUSH1 0x20 ADD DUP4 DUP4 DUP1 DUP3 DUP5 CALLDATACOPY PUSH1 0x0 SWAP3 ADD DUP3 SWAP1 MSTORE POP SWAP4 DUP6 MSTORE POP POP CALLER PUSH1 0x20 DUP5 ADD MSTORE POP PUSH1 0x40 DUP1 DUP4 ADD DUP3 SWAP1 MSTORE PUSH1 0x60 DUP4 ADD DUP6 SWAP1 MSTORE PUSH1 0x80 DUP4 ADD DUP3 SWAP1 MSTORE PUSH1 0xA0 DUP4 ADD DUP3 SWAP1 MSTORE PUSH1 0xC0 SWAP1 SWAP3 ADD DUP2 SWAP1 MSTORE SWAP1 MLOAD PUSH2 0x713 SWAP1 DUP7 SWAP1 DUP7 SWAP1 PUSH2 0xDBF JUMP JUMPDEST SWAP1 DUP2 MSTORE PUSH1 0x40 MLOAD SWAP1 DUP2 SWAP1 SUB PUSH1 0x20 ADD SWAP1 KECCAK256 DUP2 MLOAD DUP2 SWAP1 PUSH2 0x730 SWAP1 DUP3 PUSH2 0xEA1 JUMP JUMPDEST POP PUSH1 0x20 DUP3 ADD MLOAD PUSH1 0x1 DUP1 DUP4 ADD DUP1 SLOAD PUSH1 0x1 PUSH1 0x1 PUSH1 0xA0 SHL SUB SWAP4 DUP5 AND PUSH1 0x1 PUSH1 0x1 PUSH1 0xA0 SHL SUB NOT SWAP2 DUP3 AND OR SWAP1 SWAP2 SSTORE PUSH1 0x40 DUP6 ADD MLOAD PUSH1 0x2 DUP6 ADD DUP1 SLOAD SWAP2 SWAP1 SWAP5 AND SWAP2 AND OR SWAP1 SWAP2 SSTORE PUSH1 0x60 DUP4 ADD MLOAD PUSH1 0x3 DUP4 ADD SSTORE PUSH1 0x80 DUP4 ADD MLOAD PUSH1 0x4 DUP1 DUP5 ADD SWAP2 SWAP1 SWAP2 SSTORE PUSH1 0xA0 DUP5 ADD MLOAD PUSH1 0x5 DUP5 ADD SSTORE PUSH1 0xC0 DUP5 ADD MLOAD PUSH1 0x6 DUP5 ADD DUP1 SLOAD SWAP2 SWAP4 SWAP1 SWAP3 PUSH1 0xFF NOT SWAP1 SWAP3 AND SWAP2 DUP5 SWAP1 DUP2 GT ISZERO PUSH2 0x7B6 JUMPI PUSH2 0x7B6 PUSH2 0xCED JUMP JUMPDEST MUL OR SWAP1 SSTORE POP POP PUSH1 0x40 MLOAD CALLER SWAP2 POP PUSH2 0x7CF SWAP1 DUP6 SWAP1 DUP6 SWAP1 PUSH2 0xDBF JUMP JUMPDEST PUSH1 0x40 MLOAD SWAP1 DUP2 SWAP1 SUB DUP2 KECCAK256 DUP4 DUP3 MSTORE SWAP1 PUSH32 0xFA05D08980109E2BCCCD04DEC4A2CC45C291B50A06D6CD0602CAF92858E67294 SWAP1 PUSH1 0x20 ADD PUSH2 0x2FD JUMP JUMPDEST DUP1 MLOAD PUSH1 0x20 DUP2 DUP4 ADD DUP2 ADD DUP1 MLOAD PUSH1 0x0 DUP3 MSTORE SWAP3 DUP3 ADD SWAP2 SWAP1 SWAP4 ADD KECCAK256 SWAP2 MSTORE DUP1 SLOAD DUP2 SWAP1 PUSH2 0x82C SWAP1 PUSH2 0xE18 JUMP JUMPDEST DUP1 PUSH1 0x1F ADD PUSH1 0x20 DUP1 SWAP2 DIV MUL PUSH1 0x20 ADD PUSH1 0x40 MLOAD SWAP1 DUP2 ADD PUSH1 0x40 MSTORE DUP1 SWAP3 SWAP2 SWAP1 DUP2 DUP2 MSTORE PUSH1 0x20 ADD DUP3 DUP1 SLOAD PUSH2 0x858 SWAP1 PUSH2 0xE18 JUMP JUMPDEST DUP1 ISZERO PUSH2 0x8A5 JUMPI DUP1 PUSH1 0x1F LT PUSH2 0x87A JUMPI PUSH2 0x100 DUP1 DUP4 SLOAD DIV MUL DUP4 MSTORE SWAP2 PUSH1 0x20 ADD SWAP2 PUSH2 0x8A5 JUMP JUMPDEST DUP3 ADD SWAP2 SWAP1 PUSH1 0x0 MSTORE PUSH1 0x20 PUSH1 0x0 KECCAK256 SWAP1 JUMPDEST DUP2 SLOAD DUP2 MSTORE SWAP1 PUSH1 0x1 ADD SWAP1 PUSH1 0x20 ADD DUP1 DUP4 GT PUSH2 0x888 JUMPI DUP3 SWAP1 SUB PUSH1 0x1F AND DUP3 ADD SWAP2 JUMPDEST POP POP POP PUSH1 0x1 DUP5 ADD SLOAD PUSH1 0x2 DUP6 ADD SLOAD PUSH1 0x3 DUP7 ADD SLOAD PUSH1 0x4 DUP8 ADD SLOAD PUSH1 0x5 DUP9 ADD SLOAD PUSH1 0x6 SWAP1 SWAP9 ADD SLOAD SWAP7 SWAP8 PUSH1 0x1 PUSH1 0x1 PUSH1 0xA0 SHL SUB SWAP5 DUP6 AND SWAP8 SWAP4 SWAP1 SWAP5 AND SWAP6 POP SWAP1 SWAP4 POP SWAP2 SWAP1 PUSH1 0xFF AND DUP8 JUMP JUMPDEST PUSH1 0x0 DUP1 DUP4 DUP4 PUSH1 0x40 MLOAD PUSH2 0x8F9 SWAP3 SWAP2 SWAP1 PUSH2 0xDBF JUMP JUMPDEST SWAP1 DUP2 MSTORE PUSH1 0x40 MLOAD SWAP1 DUP2 SWAP1 SUB PUSH1 0x20 ADD SWAP1 KECCAK256 PUSH1 0x1 DUP2 ADD SLOAD SWAP1 SWAP2 POP PUSH1 0x1 PUSH1 0x1 PUSH1 0xA0 SHL SUB AND PUSH2 0x936 JUMPI PUSH1 0x40 MLOAD PUSH4 0xE7E621D PUSH1 0xE0 SHL DUP2 MSTORE PUSH1 0x4 ADD PUSH1 0x40 MLOAD DUP1 SWAP2 SUB SWAP1 REVERT JUMPDEST PUSH1 0x1 DUP2 ADD SLOAD PUSH1 0x1 PUSH1 0x1 PUSH1 0xA0 SHL SUB AND CALLER EQ PUSH2 0x962 JUMPI PUSH1 0x40 MLOAD PUSH3 0x82B429 PUSH1 0xE8 SHL DUP2 MSTORE PUSH1 0x4 ADD PUSH1 0x40 MLOAD DUP1 SWAP2 SUB SWAP1 REVERT JUMPDEST PUSH1 0x0 PUSH1 0x6 DUP3 ADD SLOAD PUSH1 0xFF AND PUSH1 0x4 DUP2 GT ISZERO PUSH2 0x97D JUMPI PUSH2 0x97D PUSH2 0xCED JUMP JUMPDEST EQ PUSH2 0x9A7 JUMPI PUSH1 0x6 DUP2 ADD SLOAD PUSH1 0x40 MLOAD PUSH4 0x3BF2E2F9 PUSH1 0xE1 SHL DUP2 MSTORE PUSH2 0x215 SWAP2 PUSH1 0xFF AND SWAP1 PUSH1 0x0 SWAP1 PUSH1 0x4 ADD PUSH2 0xDCF JUMP JUMPDEST PUSH1 0x6 DUP2 ADD DUP1 SLOAD PUSH1 0xFF NOT AND PUSH1 0x4 OR SWAP1 SSTORE PUSH1 0x40 MLOAD CALLER SWAP1 PUSH2 0x9C8 SWAP1 DUP6 SWAP1 DUP6 SWAP1 PUSH2 0xDBF JUMP JUMPDEST PUSH1 0x40 MLOAD SWAP1 DUP2 SWAP1 SUB DUP2 KECCAK256 SWAP1 PUSH32 0x82C948553D5A89A950D1EEA584E5CD97ACB3C60B4BD13533A5258B945A38DE48 SWAP1 PUSH1 0x0 SWAP1 LOG3 POP POP POP JUMP JUMPDEST PUSH1 0x0 DUP1 DUP4 DUP4 PUSH1 0x40 MLOAD PUSH2 0xA10 SWAP3 SWAP2 SWAP1 PUSH2 0xDBF JUMP JUMPDEST SWAP1 DUP2 MSTORE PUSH1 0x40 MLOAD SWAP1 DUP2 SWAP1 SUB PUSH1 0x20 ADD SWAP1 KECCAK256 PUSH1 0x1 DUP2 ADD SLOAD SWAP1 SWAP2 POP PUSH1 0x1 PUSH1 0x1 PUSH1 0xA0 SHL SUB AND PUSH2 0xA4D JUMPI PUSH1 0x40 MLOAD PUSH4 0xE7E621D PUSH1 0xE0 SHL DUP2 MSTORE PUSH1 0x4 ADD PUSH1 0x40 MLOAD DUP1 SWAP2 SUB SWAP1 REVERT JUMPDEST PUSH1 0x0 PUSH1 0x6 DUP3 ADD SLOAD PUSH1 0xFF AND PUSH1 0x4 DUP2 GT ISZERO PUSH2 0xA68 JUMPI PUSH2 0xA68 PUSH2 0xCED JUMP JUMPDEST EQ PUSH2 0xA92 JUMPI PUSH1 0x6 DUP2 ADD SLOAD PUSH1 0x40 MLOAD PUSH4 0x3BF2E2F9 PUSH1 0xE1 SHL DUP2 MSTORE PUSH2 0x215 SWAP2 PUSH1 0xFF AND SWAP1 PUSH1 0x0 SWAP1 PUSH1 0x4 ADD PUSH2 0xDCF JUMP JUMPDEST DUP1 PUSH1 0x3 ADD SLOAD CALLVALUE EQ PUSH2 0xAB6 JUMPI PUSH1 0x40 MLOAD PUSH4 0x162908E3 PUSH1 0xE1 SHL DUP2 MSTORE PUSH1 0x4 ADD PUSH1 0x40 MLOAD DUP1 SWAP2 SUB SWAP1 REVERT JUMPDEST PUSH1 0x1 DUP2 ADD SLOAD PUSH1 0x1 PUSH1 0x1 PUSH1 0xA0 SHL SUB AND CALLER SUB PUSH2 0xAE2 JUMPI PUSH1 0x40 MLOAD PUSH3 0x82B429 PUSH1 0xE8 SHL DUP2 MSTORE PUSH1 0x4 ADD PUSH1 0x40 MLOAD DUP1 SWAP2 SUB SWAP1 REVERT JUMPDEST PUSH1 0x2 DUP2 ADD DUP1 SLOAD PUSH1 0x1 PUSH1 0x1 PUSH1 0xA0 SHL SUB NOT AND CALLER SWAP1 DUP2 OR SWAP1 SWAP2 SSTORE PUSH1 0x6 DUP3 ADD DUP1 SLOAD PUSH1 0xFF NOT AND PUSH1 0x1 OR SWAP1 SSTORE PUSH1 0x40 MLOAD PUSH2 0xB18 SWAP1 DUP6 SWAP1 DUP6 SWAP1 PUSH2 0xDBF JUMP JUMPDEST PUSH1 0x40 MLOAD SWAP1 DUP2 SWAP1 SUB DUP2 KECCAK256 CALLVALUE DUP3 MSTORE SWAP1 PUSH32 0x3AFF663A8467891866B3283B873F5E8F912954BDEF39FC195F1F9C3870C504C2 SWAP1 PUSH1 0x20 ADD PUSH2 0x2FD JUMP JUMPDEST PUSH1 0x0 DUP1 DUP4 PUSH1 0x1F DUP5 ADD SLT PUSH2 0xB61 JUMPI PUSH1 0x0 DUP1 REVERT JUMPDEST POP DUP2 CALLDATALOAD PUSH8 0xFFFFFFFFFFFFFFFF DUP2 GT ISZERO PUSH2 0xB79 JUMPI PUSH1 0x0 DUP1 REVERT JUMPDEST PUSH1 0x20 DUP4 ADD SWAP2 POP DUP4 PUSH1 0x20 DUP3 DUP6 ADD ADD GT ISZERO PUSH2 0xB91 JUMPI PUSH1 0x0 DUP1 REVERT JUMPDEST SWAP3 POP SWAP3 SWAP1 POP JUMP JUMPDEST PUSH1 0x0 DUP1 PUSH1 0x20 DUP4 DUP6 SUB SLT ISZERO PUSH2 0xBAB JUMPI PUSH1 0x0 DUP1 REVERT JUMPDEST DUP3 CALLDATALOAD PUSH8 0xFFFFFFFFFFFFFFFF DUP2 GT ISZERO PUSH2 0xBC2 JUMPI PUSH1 0x0 DUP1 REVERT JUMPDEST PUSH2 0xBCE DUP6 DUP3 DUP7 ADD PUSH2 0xB4F JUMP JUMPDEST SWAP1 SWAP7 SWAP1 SWAP6 POP SWAP4 POP POP POP POP JUMP JUMPDEST PUSH1 0x0 DUP1 PUSH1 0x0 PUSH1 0x40 DUP5 DUP7 SUB SLT ISZERO PUSH2 0xBEF JUMPI PUSH1 0x0 DUP1 REVERT JUMPDEST DUP4 CALLDATALOAD PUSH8 0xFFFFFFFFFFFFFFFF DUP2 GT ISZERO PUSH2 0xC06 JUMPI PUSH1 0x0 DUP1 REVERT JUMPDEST PUSH2 0xC12 DUP7 DUP3 DUP8 ADD PUSH2 0xB4F JUMP JUMPDEST SWAP1 SWAP8 SWAP1 SWAP7 POP PUSH1 0x20 SWAP6 SWAP1 SWAP6 ADD CALLDATALOAD SWAP5 SWAP4 POP POP POP POP JUMP JUMPDEST PUSH4 0x4E487B71 PUSH1 0xE0 SHL PUSH1 0x0 MSTORE PUSH1 0x41 PUSH1 0x4 MSTORE PUSH1 0x24 PUSH1 0x0 REVERT JUMPDEST PUSH1 0x0 PUSH1 0x20 DUP3 DUP5 SUB SLT ISZERO PUSH2 0xC4E JUMPI PUSH1 0x0 DUP1 REVERT JUMPDEST DUP2 CALLDATALOAD PUSH8 0xFFFFFFFFFFFFFFFF DUP1 DUP3 GT ISZERO PUSH2 0xC66 JUMPI PUSH1 0x0 DUP1 REVERT JUMPDEST DUP2 DUP5 ADD SWAP2 POP DUP5 PUSH1 0x1F DUP4 ADD SLT PUSH2 0xC7A JUMPI PUSH1 0x0 DUP1 REVERT JUMPDEST DUP2 CALLDATALOAD DUP2 DUP2 GT ISZERO PUSH2 0xC8C JUMPI PUSH2 0xC8C PUSH2 0xC26 JUMP JUMPDEST PUSH1 0x40 MLOAD PUSH1 0x1F DUP3 ADD PUSH1 0x1F NOT SWAP1 DUP2 AND PUSH1 0x3F ADD AND DUP2 ADD SWAP1 DUP4 DUP3 GT DUP2 DUP4 LT OR ISZERO PUSH2 0xCB4 JUMPI PUSH2 0xCB4 PUSH2 0xC26 JUMP JUMPDEST DUP2 PUSH1 0x40 MSTORE DUP3 DUP2 MSTORE DUP8 PUSH1 0x20 DUP5 DUP8 ADD ADD GT ISZERO PUSH2 0xCCD JUMPI PUSH1 0x0 DUP1 REVERT JUMPDEST DUP3 PUSH1 0x20 DUP7 ADD PUSH1 0x20 DUP4 ADD CALLDATACOPY PUSH1 0x0 SWAP3 DUP2 ADD PUSH1 0x20 ADD SWAP3 SWAP1 SWAP3 MSTORE POP SWAP6 SWAP5 POP POP POP POP POP JUMP JUMPDEST PUSH4 0x4E487B71 PUSH1 0xE0 SHL PUSH1 0x0 MSTORE PUSH1 0x21 PUSH1 0x4 MSTORE PUSH1 0x24 PUSH1 0x0 REVERT JUMPDEST PUSH1 0x5 DUP2 LT PUSH2 0xD21 JUMPI PUSH4 0x4E487B71 PUSH1 0xE0 SHL PUSH1 0x0 MSTORE PUSH1 0x21 PUSH1 0x4 MSTORE PUSH1 0x24 PUSH1 0x0 REVERT JUMPDEST SWAP1 MSTORE JUMP JUMPDEST PUSH1 0xE0 DUP2 MSTORE PUSH1 0x0 DUP9 MLOAD DUP1 PUSH1 0xE0 DUP5 ADD MSTORE PUSH1 0x0 JUMPDEST DUP2 DUP2 LT ISZERO PUSH2 0xD54 JUMPI PUSH1 0x20 DUP2 DUP13 ADD DUP2 ADD MLOAD PUSH2 0x100 DUP7 DUP5 ADD ADD MSTORE ADD PUSH2 0xD36 JUMP JUMPDEST POP PUSH2 0x100 PUSH1 0x0 DUP2 DUP4 DUP7 ADD ADD MSTORE DUP1 PUSH1 0x1F NOT PUSH1 0x1F DUP5 ADD AND DUP6 ADD ADD SWAP3 POP POP POP PUSH2 0xD85 PUSH1 0x20 DUP4 ADD DUP10 PUSH1 0x1 PUSH1 0x1 PUSH1 0xA0 SHL SUB AND SWAP1 MSTORE JUMP JUMPDEST PUSH1 0x1 PUSH1 0x1 PUSH1 0xA0 SHL SUB DUP8 AND PUSH1 0x40 DUP4 ADD MSTORE DUP6 PUSH1 0x60 DUP4 ADD MSTORE DUP5 PUSH1 0x80 DUP4 ADD MSTORE DUP4 PUSH1 0xA0 DUP4 ADD MSTORE PUSH2 0xDB3 PUSH1 0xC0 DUP4 ADD DUP5 PUSH2 0xD03 JUMP JUMPDEST SWAP9 SWAP8 POP POP POP POP POP POP POP POP JUMP JUMPDEST DUP2 DUP4 DUP3 CALLDATACOPY PUSH1 0x0 SWAP2 ADD SWAP1 DUP2 MSTORE SWAP2 SWAP1 POP JUMP JUMPDEST PUSH1 0x40 DUP2 ADD PUSH2 0xDDD DUP3 DUP6 PUSH2 0xD03 JUMP JUMPDEST PUSH2 0xDEA PUSH1 0x20 DUP4 ADD DUP5 PUSH2 0xD03 JUMP JUMPDEST SWAP4 SWAP3 POP POP POP JUMP JUMPDEST DUP1 DUP3 ADD DUP1 DUP3 GT ISZERO PUSH2 0xE12 JUMPI PUSH4 0x4E487B71 PUSH1 0xE0 SHL PUSH1 0x0 MSTORE PUSH1 0x11 PUSH1 0x4 MSTORE PUSH1 0x24 PUSH1 0x0 REVERT JUMPDEST SWAP3 SWAP2 POP POP JUMP JUMPDEST PUSH1 0x1 DUP2 DUP2 SHR SWAP1 DUP3 AND DUP1 PUSH2 0xE2C JUMPI PUSH1 0x7F DUP3 AND SWAP2 POP JUMPDEST PUSH1 0x20 DUP3 LT DUP2 SUB PUSH2 0xE4C JUMPI PUSH4 0x4E487B71 PUSH1 0xE0 SHL PUSH1 0x0 MSTORE PUSH1 0x22 PUSH1 0x4 MSTORE PUSH1 0x24 PUSH1 0x0 REVERT JUMPDEST POP SWAP2 SWAP1 POP JUMP JUMPDEST PUSH1 0x1F DUP3 GT ISZERO PUSH2 0xE9C JUMPI PUSH1 0x0 DUP2 DUP2 MSTORE PUSH1 0x20 DUP2 KECCAK256 PUSH1 0x1F DUP6 ADD PUSH1 0x5 SHR DUP2 ADD PUSH1 0x20 DUP7 LT ISZERO PUSH2 0xE79 JUMPI POP DUP1 JUMPDEST PUSH1 0x1F DUP6 ADD PUSH1 0x5 SHR DUP3 ADD SWAP2 POP JUMPDEST DUP2 DUP2 LT ISZERO PUSH2 0xE98 JUMPI DUP3 DUP2 SSTORE PUSH1 0x1 ADD PUSH2 0xE85 JUMP JUMPDEST POP POP POP JUMPDEST POP POP POP JUMP JUMPDEST DUP2 MLOAD PUSH8 0xFFFFFFFFFFFFFFFF DUP2 GT ISZERO PUSH2 0xEBB JUMPI PUSH2 0xEBB PUSH2 0xC26 JUMP JUMPDEST PUSH2 0xECF DUP2 PUSH2 0xEC9 DUP5 SLOAD PUSH2 0xE18 JUMP JUMPDEST DUP5 PUSH2 0xE52 JUMP JUMPDEST PUSH1 0x20 DUP1 PUSH1 0x1F DUP4 GT PUSH1 0x1 DUP2 EQ PUSH2 0xF04 JUMPI PUSH1 0x0 DUP5 ISZERO PUSH2 0xEEC JUMPI POP DUP6 DUP4 ADD MLOAD JUMPDEST PUSH1 0x0 NOT PUSH1 0x3 DUP7 SWAP1 SHL SHR NOT AND PUSH1 0x1 DUP6 SWAP1 SHL OR DUP6 SSTORE PUSH2 0xE98 JUMP JUMPDEST PUSH1 0x0 DUP6 DUP2 MSTORE PUSH1 0x20 DUP2 KECCAK256 PUSH1 0x1F NOT DUP7 AND SWAP2 JUMPDEST DUP3 DUP2 LT ISZERO PUSH2 0xF33 JUMPI DUP9 DUP7 ADD MLOAD DUP3 SSTORE SWAP5 DUP5 ADD SWAP5 PUSH1 0x1 SWAP1 SWAP2 ADD SWAP1 DUP5 ADD PUSH2 0xF14 JUMP JUMPDEST POP DUP6 DUP3 LT ISZERO PUSH2 0xF51 JUMPI DUP8 DUP6 ADD MLOAD PUSH1 0x0 NOT PUSH1 0x3 DUP9 SWAP1 SHL PUSH1 0xF8 AND SHR NOT AND DUP2 SSTORE JUMPDEST POP POP POP POP POP PUSH1 0x1 SWAP1 DUP2 SHL ADD SWAP1 SSTORE POP JUMP INVALID LOG2 PUSH5 0x6970667358 0x22 SLT KECCAK256 MSTORE PUSH14 0xAB57793A2AE24EB3E69899DF99DE DIV 0x4E 0xAB 0xEB 0xEB SIGNEXTEND OR STOP PUSH23 0xAD65DA46D300864736F6C634300081400330000000000 "},"methodIdentifiers":{"cancelLoanRequest(string)":"d24b9d90","claimRepayment(string)":"61ec4127","createLoanRequest(string,uint256)":"970d7728","fundLoan(string)":"f897eeba","loans(string)":"c6141f63","repayLoan(string)":"035dc3d9","withdrawPrincipal(string)":"8e329877"}}}}}